{
    "abi": [
        {
            "type": "constructor",
            "inputs": [
                {
                    "name": "_creAddress",
                    "type": "address",
                    "internalType": "address"
                }
            ],
            "stateMutability": "nonpayable"
        },
        {
            "type": "function",
            "name": "artistTracks",
            "inputs": [
                {
                    "name": "",
                    "type": "address",
                    "internalType": "address"
                },
                {
                    "name": "",
                    "type": "uint256",
                    "internalType": "uint256"
                }
            ],
            "outputs": [
                {
                    "name": "",
                    "type": "bytes32",
                    "internalType": "bytes32"
                }
            ],
            "stateMutability": "view"
        },
        {
            "type": "function",
            "name": "creAddress",
            "inputs": [],
            "outputs": [
                {
                    "name": "",
                    "type": "address",
                    "internalType": "address"
                }
            ],
            "stateMutability": "view"
        },
        {
            "type": "function",
            "name": "entries",
            "inputs": [
                {
                    "name": "",
                    "type": "bytes32",
                    "internalType": "bytes32"
                }
            ],
            "outputs": [
                {
                    "name": "commitmentHash",
                    "type": "bytes32",
                    "internalType": "bytes32"
                },
                {
                    "name": "worldNullifier",
                    "type": "uint256",
                    "internalType": "uint256"
                },
                {
                    "name": "timestamp",
                    "type": "uint256",
                    "internalType": "uint256"
                },
                {
                    "name": "status",
                    "type": "uint8",
                    "internalType": "enum Registry.Status"
                }
            ],
            "stateMutability": "view"
        },
        {
            "type": "function",
            "name": "getArtistTracks",
            "inputs": [
                {
                    "name": "artist",
                    "type": "address",
                    "internalType": "address"
                }
            ],
            "outputs": [
                {
                    "name": "",
                    "type": "bytes32[]",
                    "internalType": "bytes32[]"
                }
            ],
            "stateMutability": "view"
        },
        {
            "type": "function",
            "name": "getEntry",
            "inputs": [
                {
                    "name": "trackId",
                    "type": "bytes32",
                    "internalType": "bytes32"
                }
            ],
            "outputs": [
                {
                    "name": "",
                    "type": "tuple",
                    "internalType": "struct Registry.Entry",
                    "components": [
                        {
                            "name": "commitmentHash",
                            "type": "bytes32",
                            "internalType": "bytes32"
                        },
                        {
                            "name": "worldNullifier",
                            "type": "uint256",
                            "internalType": "uint256"
                        },
                        {
                            "name": "timestamp",
                            "type": "uint256",
                            "internalType": "uint256"
                        },
                        {
                            "name": "status",
                            "type": "uint8",
                            "internalType": "enum Registry.Status"
                        },
                        {
                            "name": "walrusBlobIds",
                            "type": "bytes32[]",
                            "internalType": "bytes32[]"
                        }
                    ]
                }
            ],
            "stateMutability": "view"
        },
        {
            "type": "function",
            "name": "receiveCRECallback",
            "inputs": [
                {
                    "name": "trackId",
                    "type": "bytes32",
                    "internalType": "bytes32"
                },
                {
                    "name": "verdict",
                    "type": "uint8",
                    "internalType": "enum Registry.Status"
                },
                {
                    "name": "",
                    "type": "bytes",
                    "internalType": "bytes"
                }
            ],
            "outputs": [],
            "stateMutability": "nonpayable"
        },
        {
            "type": "function",
            "name": "registerTrack",
            "inputs": [
                {
                    "name": "nullifier",
                    "type": "uint256",
                    "internalType": "uint256"
                },
                {
                    "name": "commitmentHash",
                    "type": "bytes32",
                    "internalType": "bytes32"
                },
                {
                    "name": "walrusBlobIds",
                    "type": "bytes32[]",
                    "internalType": "bytes32[]"
                }
            ],
            "outputs": [
                {
                    "name": "trackId",
                    "type": "bytes32",
                    "internalType": "bytes32"
                }
            ],
            "stateMutability": "nonpayable"
        },
        {
            "type": "function",
            "name": "revealTrack",
            "inputs": [
                {
                    "name": "trackId",
                    "type": "bytes32",
                    "internalType": "bytes32"
                },
                {
                    "name": "fullProfileHash",
                    "type": "bytes32",
                    "internalType": "bytes32"
                }
            ],
            "outputs": [],
            "stateMutability": "nonpayable"
        },
        {
            "type": "function",
            "name": "usedNullifiers",
            "inputs": [
                {
                    "name": "",
                    "type": "uint256",
                    "internalType": "uint256"
                }
            ],
            "outputs": [
                {
                    "name": "",
                    "type": "bool",
                    "internalType": "bool"
                }
            ],
            "stateMutability": "view"
        },
        {
            "type": "event",
            "name": "StatusUpdated",
            "inputs": [
                {
                    "name": "trackId",
                    "type": "bytes32",
                    "indexed": true,
                    "internalType": "bytes32"
                },
                {
                    "name": "status",
                    "type": "uint8",
                    "indexed": false,
                    "internalType": "enum Registry.Status"
                }
            ],
            "anonymous": false
        },
        {
            "type": "event",
            "name": "TrackRegistered",
            "inputs": [
                {
                    "name": "artist",
                    "type": "address",
                    "indexed": true,
                    "internalType": "address"
                },
                {
                    "name": "trackId",
                    "type": "bytes32",
                    "indexed": true,
                    "internalType": "bytes32"
                },
                {
                    "name": "commitmentHash",
                    "type": "bytes32",
                    "indexed": false,
                    "internalType": "bytes32"
                },
                {
                    "name": "timestamp",
                    "type": "uint256",
                    "indexed": false,
                    "internalType": "uint256"
                }
            ],
            "anonymous": false
        },
        {
            "type": "event",
            "name": "TrackRevealed",
            "inputs": [
                {
                    "name": "trackId",
                    "type": "bytes32",
                    "indexed": true,
                    "internalType": "bytes32"
                },
                {
                    "name": "fullProfileHash",
                    "type": "bytes32",
                    "indexed": false,
                    "internalType": "bytes32"
                }
            ],
            "anonymous": false
        },
        {
            "type": "error",
            "name": "InvalidStatus",
            "inputs": []
        },
        {
            "type": "error",
            "name": "NotArtist",
            "inputs": []
        },
        {
            "type": "error",
            "name": "NotCRE",
            "inputs": []
        },
        {
            "type": "error",
            "name": "NullifierAlreadyUsed",
            "inputs": []
        },
        {
            "type": "error",
            "name": "TrackNotFound",
            "inputs": []
        }
    ],
    "bytecode": {
        "object": "0x60a060405234801562000010575f80fd5b5060405162001391380380620013918339818101604052810190620000369190620000d6565b8073ffffffffffffffffffffffffffffffffffffffff1660808173ffffffffffffffffffffffffffffffffffffffff16815250505062000106565b5f80fd5b5f73ffffffffffffffffffffffffffffffffffffffff82169050919050565b5f620000a08262000075565b9050919050565b620000b28162000094565b8114620000bd575f80fd5b50565b5f81519050620000d081620000a7565b92915050565b5f60208284031215620000ee57620000ed62000071565b5b5f620000fd84828501620000c0565b91505092915050565b60805161126b620001265f395f818161046a0152610677015261126b5ff3fe608060405234801561000f575f80fd5b5060043610610091575f3560e01c80637b3ee633116100645780637b3ee633146101465780639a5e4eb414610176578063aad24061146101a6578063c28db5f5146101d6578063d35f9f72146101f257610091565b80630ae218b41461009557806312d5f556146100c5578063267b6922146100e35780635339225814610116575b5f80fd5b6100af60048036038101906100aa9190610b1a565b61020e565b6040516100bc9190610b9a565b60405180910390f35b6100cd610468565b6040516100da9190610bf2565b60405180910390f35b6100fd60048036038101906100f89190610c0b565b61048c565b60405161010d9493929190610cb8565b60405180910390f35b610130600480360381019061012b9190610d25565b6104c3565b60405161013d9190610e07565b60405180910390f35b610160600480360381019061015b9190610e27565b610556565b60405161016d9190610b9a565b60405180910390f35b610190600480360381019061018b9190610c0b565b610581565b60405161019d9190610f62565b60405180910390f35b6101c060048036038101906101bb9190610f82565b610658565b6040516101cd9190610fc7565b60405180910390f35b6101f060048036038101906101eb9190611058565b610675565b005b61020c600480360381019061020791906110c9565b6107be565b005b5f60025f8681526020019081526020015f205f9054906101000a900460ff1615610264576040517fcad2ae0200000000000000000000000000000000000000000000000000000000815260040160405180910390fd5b600160025f8781526020019081526020015f205f6101000a81548160ff0219169083151502179055503384426040516020016102a29392919061118c565b6040516020818303038152906040528051906020012090506040518060a001604052808581526020018681526020014281526020015f60038111156102ea576102e9610c45565b5b81526020018484808060200260200160405190810160405280939291908181526020018383602002808284375f81840152601f19601f820116905080830192505050505050508152505f808381526020019081526020015f205f820151815f015560208201518160010155604082015181600201556060820151816003015f6101000a81548160ff0219169083600381111561038957610388610c45565b5b021790555060808201518160040190805190602001906103aa9291906109a5565b5090505060015f3373ffffffffffffffffffffffffffffffffffffffff1673ffffffffffffffffffffffffffffffffffffffff1681526020019081526020015f2081908060018154018082558091505060019003905f5260205f20015f9091909190915055803373ffffffffffffffffffffffffffffffffffffffff167f93675e94cfa09babe159a5add5eb4fe093a2cd0e091dec33b8fbb82d26dd3f1986426040516104589291906111c8565b60405180910390a3949350505050565b7f000000000000000000000000000000000000000000000000000000000000000081565b5f602052805f5260405f205f91509050805f015490806001015490806002015490806003015f9054906101000a900460ff16905084565b606060015f8373ffffffffffffffffffffffffffffffffffffffff1673ffffffffffffffffffffffffffffffffffffffff1681526020019081526020015f2080548060200260200160405190810160405280929190818152602001828054801561054a57602002820191905f5260205f20905b815481526020019060010190808311610536575b50505050509050919050565b6001602052815f5260405f20818154811061056f575f80fd5b905f5260205f20015f91509150505481565b6105896109f0565b5f808381526020019081526020015f206040518060a00160405290815f82015481526020016001820154815260200160028201548152602001600382015f9054906101000a900460ff1660038111156105e5576105e4610c45565b5b60038111156105f7576105f6610c45565b5b81526020016004820180548060200260200160405190810160405280929190818152602001828054801561064857602002820191905f5260205f20905b815481526020019060010190808311610634575b5050505050815250509050919050565b6002602052805f5260405f205f915054906101000a900460ff1681565b7f000000000000000000000000000000000000000000000000000000000000000073ffffffffffffffffffffffffffffffffffffffff163373ffffffffffffffffffffffffffffffffffffffff16146106fa576040517f32a2df7800000000000000000000000000000000000000000000000000000000815260040160405180910390fd5b5f805f8681526020019081526020015f206002015403610746576040517f15f764b000000000000000000000000000000000000000000000000000000000815260040160405180910390fd5b825f808681526020019081526020015f206003015f6101000a81548160ff0219169083600381111561077b5761077a610c45565b5b0217905550837f8ed894b6f384ca9c829b9aa5b056bc9106a90845a15616607e975d4ad488ee67846040516107b091906111ef565b60405180910390a250505050565b5f805f8481526020019081526020015f2090505f81600201540361080e576040517f15f764b000000000000000000000000000000000000000000000000000000000815260040160405180910390fd5b5f600381111561082157610820610c45565b5b816003015f9054906101000a900460ff16600381111561084457610843610c45565b5b1461087b576040517ff525e32000000000000000000000000000000000000000000000000000000000815260040160405180910390fd5b5f60015f3373ffffffffffffffffffffffffffffffffffffffff1673ffffffffffffffffffffffffffffffffffffffff1681526020019081526020015f2090505f805b828054905081101561090257858382815481106108de576108dd611208565b5b905f5260205f200154036108f55760019150610902565b80806001019150506108be565b508061093a576040517f6bebaa5300000000000000000000000000000000000000000000000000000000815260040160405180910390fd5b6001836003015f6101000a81548160ff0219169083600381111561096157610960610c45565b5b0217905550847f8928af2b9afebc3fdd992b9f7d3774744ea4350366a37deafff1b21cb0ceb4a6856040516109969190610b9a565b60405180910390a25050505050565b828054828255905f5260205f209081019282156109df579160200282015b828111156109de5782518255916020019190600101906109c3565b5b5090506109ec9190610a30565b5090565b6040518060a001604052805f80191681526020015f81526020015f81526020015f6003811115610a2357610a22610c45565b5b8152602001606081525090565b5b80821115610a47575f815f905550600101610a31565b5090565b5f80fd5b5f80fd5b5f819050919050565b610a6581610a53565b8114610a6f575f80fd5b50565b5f81359050610a8081610a5c565b92915050565b5f819050919050565b610a9881610a86565b8114610aa2575f80fd5b50565b5f81359050610ab381610a8f565b92915050565b5f80fd5b5f80fd5b5f80fd5b5f8083601f840112610ada57610ad9610ab9565b5b8235905067ffffffffffffffff811115610af757610af6610abd565b5b602083019150836020820283011115610b1357610b12610ac1565b5b9250929050565b5f805f8060608587031215610b3257610b31610a4b565b5b5f610b3f87828801610a72565b9450506020610b5087828801610aa5565b935050604085013567ffffffffffffffff811115610b7157610b70610a4f565b5b610b7d87828801610ac5565b925092505092959194509250565b610b9481610a86565b82525050565b5f602082019050610bad5f830184610b8b565b92915050565b5f73ffffffffffffffffffffffffffffffffffffffff82169050919050565b5f610bdc82610bb3565b9050919050565b610bec81610bd2565b82525050565b5f602082019050610c055f830184610be3565b92915050565b5f60208284031215610c2057610c1f610a4b565b5b5f610c2d84828501610aa5565b91505092915050565b610c3f81610a53565b82525050565b7f4e487b71000000000000000000000000000000000000000000000000000000005f52602160045260245ffd5b60048110610c8357610c82610c45565b5b50565b5f819050610c9382610c72565b919050565b5f610ca282610c86565b9050919050565b610cb281610c98565b82525050565b5f608082019050610ccb5f830187610b8b565b610cd86020830186610c36565b610ce56040830185610c36565b610cf26060830184610ca9565b95945050505050565b610d0481610bd2565b8114610d0e575f80fd5b50565b5f81359050610d1f81610cfb565b92915050565b5f60208284031215610d3a57610d39610a4b565b5b5f610d4784828501610d11565b91505092915050565b5f81519050919050565b5f82825260208201905092915050565b5f819050602082019050919050565b610d8281610a86565b82525050565b5f610d938383610d79565b60208301905092915050565b5f602082019050919050565b5f610db582610d50565b610dbf8185610d5a565b9350610dca83610d6a565b805f5b83811015610dfa578151610de18882610d88565b9750610dec83610d9f565b925050600181019050610dcd565b5085935050505092915050565b5f6020820190508181035f830152610e1f8184610dab565b905092915050565b5f8060408385031215610e3d57610e3c610a4b565b5b5f610e4a85828601610d11565b9250506020610e5b85828601610a72565b9150509250929050565b610e6e81610a53565b82525050565b610e7d81610c98565b82525050565b5f82825260208201905092915050565b5f610e9d82610d50565b610ea78185610e83565b9350610eb283610d6a565b805f5b83811015610ee2578151610ec98882610d88565b9750610ed483610d9f565b925050600181019050610eb5565b5085935050505092915050565b5f60a083015f830151610f045f860182610d79565b506020830151610f176020860182610e65565b506040830151610f2a6040860182610e65565b506060830151610f3d6060860182610e74565b5060808301518482036080860152610f558282610e93565b9150508091505092915050565b5f6020820190508181035f830152610f7a8184610eef565b905092915050565b5f60208284031215610f9757610f96610a4b565b5b5f610fa484828501610a72565b91505092915050565b5f8115159050919050565b610fc181610fad565b82525050565b5f602082019050610fda5f830184610fb8565b92915050565b60048110610fec575f80fd5b50565b5f81359050610ffd81610fe0565b92915050565b5f8083601f84011261101857611017610ab9565b5b8235905067ffffffffffffffff81111561103557611034610abd565b5b60208301915083600182028301111561105157611050610ac1565b5b9250929050565b5f805f80606085870312156110705761106f610a4b565b5b5f61107d87828801610aa5565b945050602061108e87828801610fef565b935050604085013567ffffffffffffffff8111156110af576110ae610a4f565b5b6110bb87828801611003565b925092505092959194509250565b5f80604083850312156110df576110de610a4b565b5b5f6110ec85828601610aa5565b92505060206110fd85828601610aa5565b9150509250929050565b5f8160601b9050919050565b5f61111d82611107565b9050919050565b5f61112e82611113565b9050919050565b61114661114182610bd2565b611124565b82525050565b5f819050919050565b61116661116182610a86565b61114c565b82525050565b5f819050919050565b61118661118182610a53565b61116c565b82525050565b5f6111978286611135565b6014820191506111a78285611155565b6020820191506111b78284611175565b602082019150819050949350505050565b5f6040820190506111db5f830185610b8b565b6111e86020830184610c36565b9392505050565b5f6020820190506112025f830184610ca9565b92915050565b7f4e487b71000000000000000000000000000000000000000000000000000000005f52603260045260245ffdfea2646970667358221220647839cbf749bf04d143f650ac800c5f881f27ed006ff55441084772bd50261f64736f6c63430008180033",
        "linkReferences": {}
    },
    "methodIdentifiers": {
        "artistTracks(address,uint256)": "7b3ee633",
        "creAddress()": "12d5f556",
        "entries(bytes32)": "267b6922",
        "getArtistTracks(address)": "53392258",
        "getEntry(bytes32)": "9a5e4eb4",
        "receiveCRECallback(bytes32,uint8,bytes)": "c28db5f5",
        "registerTrack(uint256,bytes32,bytes32[])": "0ae218b4",
        "revealTrack(bytes32,bytes32)": "d35f9f72",
        "usedNullifiers(uint256)": "aad24061"
    },
    "id": 21
}