{"abi":[{"type":"constructor","inputs":[{"name":"_creAddress","type":"address","internalType":"address"}],"stateMutability":"nonpayable"},{"type":"function","name":"creAddress","inputs":[],"outputs":[{"name":"","type":"address","internalType":"address"}],"stateMutability":"view"},{"type":"function","name":"entries","inputs":[{"name":"","type":"bytes32","internalType":"bytes32"}],"outputs":[{"name":"commitmentHash","type":"bytes32","internalType":"bytes32"},{"name":"timestamp","type":"uint256","internalType":"uint256"},{"name":"status","type":"uint8","internalType":"enum Registry.Status"},{"name":"registryRef","type":"bytes32","internalType":"bytes32"},{"name":"owner","type":"address","internalType":"address"}],"stateMutability":"view"},{"type":"function","name":"getEntry","inputs":[{"name":"trackId","type":"bytes32","internalType":"bytes32"}],"outputs":[{"name":"","type":"tuple","internalType":"struct Registry.Entry","components":[{"name":"commitmentHash","type":"bytes32","internalType":"bytes32"},{"name":"timestamp","type":"uint256","internalType":"uint256"},{"name":"status","type":"uint8","internalType":"enum Registry.Status"},{"name":"registryRef","type":"bytes32","internalType":"bytes32"},{"name":"owner","type":"address","internalType":"address"}]}],"stateMutability":"view"},{"type":"function","name":"getOwnerTracks","inputs":[{"name":"owner","type":"address","internalType":"address"}],"outputs":[{"name":"","type":"bytes32[]","internalType":"bytes32[]"}],"stateMutability":"view"},{"type":"function","name":"onReport","inputs":[{"name":"","type":"bytes","internalType":"bytes"},{"name":"rawReport","type":"bytes","internalType":"bytes"}],"outputs":[],"stateMutability":"nonpayable"},{"type":"function","name":"ownerTracks","inputs":[{"name":"","type":"address","internalType":"address"},{"name":"","type":"uint256","internalType":"uint256"}],"outputs":[{"name":"","type":"bytes32","internalType":"bytes32"}],"stateMutability":"view"},{"type":"function","name":"revealTrack","inputs":[{"name":"trackId","type":"bytes32","internalType":"bytes32"},{"name":"fullProfileHash","type":"bytes32","internalType":"bytes32"},{"name":"ownerSig","type":"bytes","internalType":"bytes"}],"outputs":[],"stateMutability":"nonpayable"},{"type":"function","name":"supportsInterface","inputs":[{"name":"interfaceId","type":"bytes4","internalType":"bytes4"}],"outputs":[{"name":"","type":"bool","internalType":"bool"}],"stateMutability":"pure"},{"type":"event","name":"TrackRevealed","inputs":[{"name":"trackId","type":"bytes32","indexed":true,"internalType":"bytes32"},{"name":"fullProfileHash","type":"bytes32","indexed":false,"internalType":"bytes32"}],"anonymous":false},{"type":"event","name":"TrackSealed","inputs":[{"name":"trackId","type":"bytes32","indexed":true,"internalType":"bytes32"},{"name":"owner","type":"address","indexed":true,"internalType":"address"},{"name":"commitmentHash","type":"bytes32","indexed":false,"internalType":"bytes32"},{"name":"timestamp","type":"uint256","indexed":false,"internalType":"uint256"}],"anonymous":false},{"type":"error","name":"AlreadyRegistered","inputs":[]},{"type":"error","name":"BadSignature","inputs":[]},{"type":"error","name":"InvalidStatus","inputs":[]},{"type":"error","name":"NotOwner","inputs":[]},{"type":"error","name":"TrackNotFound","inputs":[]}],"bytecode":{"object":"0x60a060405234801562000010575f80fd5b50604051620014f8380380620014f88339818101604052810190620000369190620000d6565b8073ffffffffffffffffffffffffffffffffffffffff1660808173ffffffffffffffffffffffffffffffffffffffff16815250505062000106565b5f80fd5b5f73ffffffffffffffffffffffffffffffffffffffff82169050919050565b5f620000a08262000075565b9050919050565b620000b28162000094565b8114620000bd575f80fd5b50565b5f81519050620000d081620000a7565b92915050565b5f60208284031215620000ee57620000ed62000071565b5b5f620000fd84828501620000c0565b91505092915050565b6080516113d2620001265f395f818161023f01526102ea01526113d25ff3fe608060405234801561000f575f80fd5b5060043610610086575f3560e01c8063805f213211610059578063805f21321461013c5780639a5e4eb414610158578063ac66a77e14610188578063ddd165bf146101b857610086565b806301ffc9a71461008a57806312d5f556146100ba578063267b6922146100d8578063641f4d4a1461010c575b5f80fd5b6100a4600480360381019061009f9190610b24565b6101d4565b6040516100b19190610b69565b60405180910390f35b6100c261023d565b6040516100cf9190610bc1565b60405180910390f35b6100f260048036038101906100ed9190610c0d565b610261565b604051610103959493929190610cd2565b60405180910390f35b61012660048036038101906101219190610d77565b6102bd565b6040516101339190610db5565b60405180910390f35b61015660048036038101906101519190610e2f565b6102e8565b005b610172600480360381019061016d9190610c0d565b6105b5565b60405161017f9190610f4f565b60405180910390f35b6101a2600480360381019061019d9190610f68565b61068b565b6040516101af919061103b565b60405180910390f35b6101d260048036038101906101cd919061105b565b61071e565b005b5f7f805f213221697a8aab7e98e89fdf7e3409cc648ecd1e5e2a1f9e9bdc26b1c7477bffffffffffffffffffffffffffffffffffffffffffffffffffffffff1916827bffffffffffffffffffffffffffffffffffffffffffffffffffffffff1916149050919050565b7f000000000000000000000000000000000000000000000000000000000000000081565b5f602052805f5260405f205f91509050805f015490806001015490806002015f9054906101000a900460ff1690806003015490806004015f9054906101000a900473ffffffffffffffffffffffffffffffffffffffff16905085565b6001602052815f5260405f2081815481106102d6575f80fd5b905f5260205f20015f91509150505481565b7f000000000000000000000000000000000000000000000000000000000000000073ffffffffffffffffffffffffffffffffffffffff163373ffffffffffffffffffffffffffffffffffffffff1614610376576040517f08c379a000000000000000000000000000000000000000000000000000000000815260040161036d90611126565b60405180910390fd5b5f805f8484810190610388919061117f565b9250925092505f83836040516020016103a29291906111cf565b6040516020818303038152906040528051906020012090505f805f8381526020019081526020015f206001015414610406576040517f3a81d6fc00000000000000000000000000000000000000000000000000000000815260040160405180910390fd5b6040518060a001604052808481526020014281526020015f60018111156104305761042f610c5f565b5b81526020018381526020018573ffffffffffffffffffffffffffffffffffffffff168152505f808381526020019081526020015f205f820151815f0155602082015181600101556040820151816002015f6101000a81548160ff021916908360018111156104a1576104a0610c5f565b5b0217905550606082015181600301556080820151816004015f6101000a81548173ffffffffffffffffffffffffffffffffffffffff021916908373ffffffffffffffffffffffffffffffffffffffff16021790555090505060015f8573ffffffffffffffffffffffffffffffffffffffff1673ffffffffffffffffffffffffffffffffffffffff1681526020019081526020015f2081908060018154018082558091505060019003905f5260205f20015f90919091909150558373ffffffffffffffffffffffffffffffffffffffff16817fb594952cbafd44da933abace6319daad61ba3f18d7fbb7613c484615d88336f485426040516105a39291906111f6565b60405180910390a35050505050505050565b6105bd610a6f565b5f808381526020019081526020015f206040518060a00160405290815f820154815260200160018201548152602001600282015f9054906101000a900460ff16600181111561060f5761060e610c5f565b5b600181111561062157610620610c5f565b5b815260200160038201548152602001600482015f9054906101000a900473ffffffffffffffffffffffffffffffffffffffff1673ffffffffffffffffffffffffffffffffffffffff1673ffffffffffffffffffffffffffffffffffffffff16815250509050919050565b606060015f8373ffffffffffffffffffffffffffffffffffffffff1673ffffffffffffffffffffffffffffffffffffffff1681526020019081526020015f2080548060200260200160405190810160405280929190818152602001828054801561071257602002820191905f5260205f20905b8154815260200190600101908083116106fe575b50505050509050919050565b5f805f8681526020019081526020015f2090505f81600101540361076e576040517f15f764b000000000000000000000000000000000000000000000000000000000815260040160405180910390fd5b5f600181111561078157610780610c5f565b5b816002015f9054906101000a900460ff1660018111156107a4576107a3610c5f565b5b146107db576040517ff525e32000000000000000000000000000000000000000000000000000000000815260040160405180910390fd5b5f61080d86866040516020016107f292919061121d565b6040516020818303038152906040528051906020012061090d565b9050816004015f9054906101000a900473ffffffffffffffffffffffffffffffffffffffff1673ffffffffffffffffffffffffffffffffffffffff1661085482868661093c565b73ffffffffffffffffffffffffffffffffffffffff16146108a1576040517f30cd747100000000000000000000000000000000000000000000000000000000815260040160405180910390fd5b6001826002015f6101000a81548160ff021916908360018111156108c8576108c7610c5f565b5b0217905550857f8928af2b9afebc3fdd992b9f7d3774744ea4350366a37deafff1b21cb0ceb4a6866040516108fd9190610db5565b60405180910390a2505050505050565b5f8160405160200161091f91906112b8565b604051602081830303815290604052805190602001209050919050565b5f6041838390501461097a576040517f5cd5d23300000000000000000000000000000000000000000000000000000000815260040160405180910390fd5b5f805f853592506020860135915060408601355f1a9050601b8160ff1610156109ad57601b816109aa9190611316565b90505b5f6001888386866040515f81526020016040526040516109d09493929190611359565b6020604051602081039080840390855afa1580156109f0573d5f803e3d5ffd5b5050506020604051035190505f73ffffffffffffffffffffffffffffffffffffffff168173ffffffffffffffffffffffffffffffffffffffff1603610a61576040517f5cd5d23300000000000000000000000000000000000000000000000000000000815260040160405180910390fd5b809450505050509392505050565b6040518060a001604052805f80191681526020015f81526020015f6001811115610a9c57610a9b610c5f565b5b81526020015f80191681526020015f73ffffffffffffffffffffffffffffffffffffffff1681525090565b5f80fd5b5f80fd5b5f7fffffffff0000000000000000000000000000000000000000000000000000000082169050919050565b610b0381610acf565b8114610b0d575f80fd5b50565b5f81359050610b1e81610afa565b92915050565b5f60208284031215610b3957610b38610ac7565b5b5f610b4684828501610b10565b91505092915050565b5f8115159050919050565b610b6381610b4f565b82525050565b5f602082019050610b7c5f830184610b5a565b92915050565b5f73ffffffffffffffffffffffffffffffffffffffff82169050919050565b5f610bab82610b82565b9050919050565b610bbb81610ba1565b82525050565b5f602082019050610bd45f830184610bb2565b92915050565b5f819050919050565b610bec81610bda565b8114610bf6575f80fd5b50565b5f81359050610c0781610be3565b92915050565b5f60208284031215610c2257610c21610ac7565b5b5f610c2f84828501610bf9565b91505092915050565b610c4181610bda565b82525050565b5f819050919050565b610c5981610c47565b82525050565b7f4e487b71000000000000000000000000000000000000000000000000000000005f52602160045260245ffd5b60028110610c9d57610c9c610c5f565b5b50565b5f819050610cad82610c8c565b919050565b5f610cbc82610ca0565b9050919050565b610ccc81610cb2565b82525050565b5f60a082019050610ce55f830188610c38565b610cf26020830187610c50565b610cff6040830186610cc3565b610d0c6060830185610c38565b610d196080830184610bb2565b9695505050505050565b610d2c81610ba1565b8114610d36575f80fd5b50565b5f81359050610d4781610d23565b92915050565b610d5681610c47565b8114610d60575f80fd5b50565b5f81359050610d7181610d4d565b92915050565b5f8060408385031215610d8d57610d8c610ac7565b5b5f610d9a85828601610d39565b9250506020610dab85828601610d63565b9150509250929050565b5f602082019050610dc85f830184610c38565b92915050565b5f80fd5b5f80fd5b5f80fd5b5f8083601f840112610def57610dee610dce565b5b8235905067ffffffffffffffff811115610e0c57610e0b610dd2565b5b602083019150836001820283011115610e2857610e27610dd6565b5b9250929050565b5f805f8060408587031215610e4757610e46610ac7565b5b5f85013567ffffffffffffffff811115610e6457610e63610acb565b5b610e7087828801610dda565b9450945050602085013567ffffffffffffffff811115610e9357610e92610acb565b5b610e9f87828801610dda565b925092505092959194509250565b610eb681610bda565b82525050565b610ec581610c47565b82525050565b610ed481610cb2565b82525050565b610ee381610ba1565b82525050565b60a082015f820151610efd5f850182610ead565b506020820151610f106020850182610ebc565b506040820151610f236040850182610ecb565b506060820151610f366060850182610ead565b506080820151610f496080850182610eda565b50505050565b5f60a082019050610f625f830184610ee9565b92915050565b5f60208284031215610f7d57610f7c610ac7565b5b5f610f8a84828501610d39565b91505092915050565b5f81519050919050565b5f82825260208201905092915050565b5f819050602082019050919050565b5f610fc78383610ead565b60208301905092915050565b5f602082019050919050565b5f610fe982610f93565b610ff38185610f9d565b9350610ffe83610fad565b805f5b8381101561102e5781516110158882610fbc565b975061102083610fd3565b925050600181019050611001565b5085935050505092915050565b5f6020820190508181035f8301526110538184610fdf565b905092915050565b5f805f806060858703121561107357611072610ac7565b5b5f61108087828801610bf9565b945050602061109187828801610bf9565b935050604085013567ffffffffffffffff8111156110b2576110b1610acb565b5b6110be87828801610dda565b925092505092959194509250565b5f82825260208201905092915050565b7f4f6e6c792043524520666f7277617264657200000000000000000000000000005f82015250565b5f6111106012836110cc565b915061111b826110dc565b602082019050919050565b5f6020820190508181035f83015261113d81611104565b9050919050565b5f61114e82610b82565b9050919050565b61115e81611144565b8114611168575f80fd5b50565b5f8135905061117981611155565b92915050565b5f805f6060848603121561119657611195610ac7565b5b5f6111a38682870161116b565b93505060206111b486828701610bf9565b92505060406111c586828701610bf9565b9150509250925092565b5f6040820190506111e25f830185610bb2565b6111ef6020830184610c38565b9392505050565b5f6040820190506112095f830185610c38565b6112166020830184610c50565b9392505050565b5f6040820190506112305f830185610c38565b61123d6020830184610c38565b9392505050565b5f81905092915050565b7f19457468657265756d205369676e6564204d6573736167653a0a3332000000005f82015250565b5f611282601c83611244565b915061128d8261124e565b601c82019050919050565b5f819050919050565b6112b26112ad82610bda565b611298565b82525050565b5f6112c282611276565b91506112ce82846112a1565b60208201915081905092915050565b5f60ff82169050919050565b7f4e487b71000000000000000000000000000000000000000000000000000000005f52601160045260245ffd5b5f611320826112dd565b915061132b836112dd565b9250828201905060ff811115611344576113436112e9565b5b92915050565b611353816112dd565b82525050565b5f60808201905061136c5f830187610c38565b611379602083018661134a565b6113866040830185610c38565b6113936060830184610c38565b9594505050505056fea26469706673582212208b8d32bf84749fb3d5a7831dc581c95f175cf605e07f4561d369c4cff36b415964736f6c63430008180033","linkReferences":{}},"methodIdentifiers":{"creAddress()":"12d5f556","entries(bytes32)":"267b6922","getEntry(bytes32)":"9a5e4eb4","getOwnerTracks(address)":"ac66a77e","onReport(bytes,bytes)":"805f2132","ownerTracks(address,uint256)":"641f4d4a","revealTrack(bytes32,bytes32,bytes)":"ddd165bf","supportsInterface(bytes4)":"01ffc9a7"},"id":19}