{"abi":[{"type":"constructor","inputs":[{"name":"_creAddress","type":"address","internalType":"address"}],"stateMutability":"nonpayable"},{"type":"function","name":"artistTracks","inputs":[{"name":"","type":"address","internalType":"address"},{"name":"","type":"uint256","internalType":"uint256"}],"outputs":[{"name":"","type":"bytes32","internalType":"bytes32"}],"stateMutability":"view"},{"type":"function","name":"creAddress","inputs":[],"outputs":[{"name":"","type":"address","internalType":"address"}],"stateMutability":"view"},{"type":"function","name":"entries","inputs":[{"name":"","type":"bytes32","internalType":"bytes32"}],"outputs":[{"name":"commitmentHash","type":"bytes32","internalType":"bytes32"},{"name":"worldNullifier","type":"uint256","internalType":"uint256"},{"name":"timestamp","type":"uint256","internalType":"uint256"},{"name":"status","type":"uint8","internalType":"enum Registry.Status"},{"name":"registryRef","type":"bytes32","internalType":"bytes32"}],"stateMutability":"view"},{"type":"function","name":"getArtistTracks","inputs":[{"name":"artist","type":"address","internalType":"address"}],"outputs":[{"name":"","type":"bytes32[]","internalType":"bytes32[]"}],"stateMutability":"view"},{"type":"function","name":"getEntry","inputs":[{"name":"trackId","type":"bytes32","internalType":"bytes32"}],"outputs":[{"name":"","type":"tuple","internalType":"struct Registry.Entry","components":[{"name":"commitmentHash","type":"bytes32","internalType":"bytes32"},{"name":"worldNullifier","type":"uint256","internalType":"uint256"},{"name":"timestamp","type":"uint256","internalType":"uint256"},{"name":"status","type":"uint8","internalType":"enum Registry.Status"},{"name":"registryRef","type":"bytes32","internalType":"bytes32"}]}],"stateMutability":"view"},{"type":"function","name":"onReport","inputs":[{"name":"","type":"bytes","internalType":"bytes"},{"name":"rawReport","type":"bytes","internalType":"bytes"}],"outputs":[],"stateMutability":"nonpayable"},{"type":"function","name":"registerTrack","inputs":[{"name":"nullifier","type":"uint256","internalType":"uint256"},{"name":"commitmentHash","type":"bytes32","internalType":"bytes32"},{"name":"registryRef","type":"bytes32","internalType":"bytes32"}],"outputs":[{"name":"trackId","type":"bytes32","internalType":"bytes32"}],"stateMutability":"nonpayable"},{"type":"function","name":"revealTrack","inputs":[{"name":"trackId","type":"bytes32","internalType":"bytes32"},{"name":"fullProfileHash","type":"bytes32","internalType":"bytes32"}],"outputs":[],"stateMutability":"nonpayable"},{"type":"function","name":"supportsInterface","inputs":[{"name":"interfaceId","type":"bytes4","internalType":"bytes4"}],"outputs":[{"name":"","type":"bool","internalType":"bool"}],"stateMutability":"pure"},{"type":"event","name":"StatusUpdated","inputs":[{"name":"trackId","type":"bytes32","indexed":true,"internalType":"bytes32"},{"name":"status","type":"uint8","indexed":false,"internalType":"enum Registry.Status"}],"anonymous":false},{"type":"event","name":"TrackRegistered","inputs":[{"name":"artist","type":"address","indexed":true,"internalType":"address"},{"name":"trackId","type":"bytes32","indexed":true,"internalType":"bytes32"},{"name":"commitmentHash","type":"bytes32","indexed":false,"internalType":"bytes32"},{"name":"timestamp","type":"uint256","indexed":false,"internalType":"uint256"}],"anonymous":false},{"type":"event","name":"TrackRevealed","inputs":[{"name":"trackId","type":"bytes32","indexed":true,"internalType":"bytes32"},{"name":"fullProfileHash","type":"bytes32","indexed":false,"internalType":"bytes32"}],"anonymous":false},{"type":"error","name":"InvalidForwarder","inputs":[]},{"type":"error","name":"InvalidStatus","inputs":[]},{"type":"error","name":"NotArtist","inputs":[]},{"type":"error","name":"TrackNotFound","inputs":[]}],"bytecode":{"object":"0x60a060405234801562000010575f80fd5b50604051620012df380380620012df8339818101604052810190620000369190620000d6565b8073ffffffffffffffffffffffffffffffffffffffff1660808173ffffffffffffffffffffffffffffffffffffffff16815250505062000106565b5f80fd5b5f73ffffffffffffffffffffffffffffffffffffffff82169050919050565b5f620000a08262000075565b9050919050565b620000b28162000094565b8114620000bd575f80fd5b50565b5f81519050620000d081620000a7565b92915050565b5f60208284031215620000ee57620000ed62000071565b5b5f620000fd84828501620000c0565b91505092915050565b6080516111b9620001265f395f818161027a015261039901526111b95ff3fe608060405234801561000f575f80fd5b5060043610610091575f3560e01c80637b3ee633116100645780637b3ee63314610147578063805f21321461017757806393cf7072146101935780639a5e4eb4146101c3578063d35f9f72146101f357610091565b806301ffc9a71461009557806312d5f556146100c5578063267b6922146100e35780635339225814610117575b5f80fd5b6100af60048036038101906100aa91906109b3565b61020f565b6040516100bc91906109f8565b60405180910390f35b6100cd610278565b6040516100da9190610a50565b60405180910390f35b6100fd60048036038101906100f89190610a9c565b61029c565b60405161010e959493929190610b61565b60405180910390f35b610131600480360381019061012c9190610bdc565b6102d9565b60405161013e9190610cbe565b60405180910390f35b610161600480360381019061015c9190610d08565b61036c565b60405161016e9190610d46565b60405180910390f35b610191600480360381019061018c9190610dc0565b610397565b005b6101ad60048036038101906101a89190610e3e565b61051a565b6040516101ba9190610d46565b60405180910390f35b6101dd60048036038101906101d89190610a9c565b6106a2565b6040516101ea9190610f12565b60405180910390f35b61020d60048036038101906102089190610f2b565b61072d565b005b5f7f805f213221697a8aab7e98e89fdf7e3409cc648ecd1e5e2a1f9e9bdc26b1c7477bffffffffffffffffffffffffffffffffffffffffffffffffffffffff1916827bffffffffffffffffffffffffffffffffffffffffffffffffffffffff1916149050919050565b7f000000000000000000000000000000000000000000000000000000000000000081565b5f602052805f5260405f205f91509050805f015490806001015490806002015490806003015f9054906101000a900460ff16908060040154905085565b606060015f8373ffffffffffffffffffffffffffffffffffffffff1673ffffffffffffffffffffffffffffffffffffffff1681526020019081526020015f2080548060200260200160405190810160405280929190818152602001828054801561036057602002820191905f5260205f20905b81548152602001906001019080831161034c575b50505050509050919050565b6001602052815f5260405f208181548110610385575f80fd5b905f5260205f20015f91509150505481565b7f000000000000000000000000000000000000000000000000000000000000000073ffffffffffffffffffffffffffffffffffffffff163373ffffffffffffffffffffffffffffffffffffffff1614610425576040517f08c379a000000000000000000000000000000000000000000000000000000000815260040161041c90610fc3565b60405180910390fd5b5f8083838101906104369190611017565b915091505f805f8481526020019081526020015f206002015403610486576040517f15f764b000000000000000000000000000000000000000000000000000000000815260040160405180910390fd5b5f8160ff16600381111561049d5761049c610aee565b5b9050805f808581526020019081526020015f206003015f6101000a81548160ff021916908360038111156104d4576104d3610aee565b5b0217905550827f8ed894b6f384ca9c829b9aa5b056bc9106a90845a15616607e975d4ad488ee67826040516105099190611055565b60405180910390a250505050505050565b5f338342604051602001610530939291906110f3565b6040516020818303038152906040528051906020012090506040518060a001604052808481526020018581526020014281526020015f600381111561057857610577610aee565b5b8152602001838152505f808381526020019081526020015f205f820151815f015560208201518160010155604082015181600201556060820151816003015f6101000a81548160ff021916908360038111156105d7576105d6610aee565b5b02179055506080820151816004015590505060015f3373ffffffffffffffffffffffffffffffffffffffff1673ffffffffffffffffffffffffffffffffffffffff1681526020019081526020015f2081908060018154018082558091505060019003905f5260205f20015f9091909190915055803373ffffffffffffffffffffffffffffffffffffffff167f93675e94cfa09babe159a5add5eb4fe093a2cd0e091dec33b8fbb82d26dd3f19854260405161069392919061112f565b60405180910390a39392505050565b6106aa610914565b5f808381526020019081526020015f206040518060a00160405290815f82015481526020016001820154815260200160028201548152602001600382015f9054906101000a900460ff16600381111561070657610705610aee565b5b600381111561071857610717610aee565b5b81526020016004820154815250509050919050565b5f805f8481526020019081526020015f2090505f81600201540361077d576040517f15f764b000000000000000000000000000000000000000000000000000000000815260040160405180910390fd5b5f60038111156107905761078f610aee565b5b816003015f9054906101000a900460ff1660038111156107b3576107b2610aee565b5b146107ea576040517ff525e32000000000000000000000000000000000000000000000000000000000815260040160405180910390fd5b5f60015f3373ffffffffffffffffffffffffffffffffffffffff1673ffffffffffffffffffffffffffffffffffffffff1681526020019081526020015f2090505f805b8280549050811015610871578583828154811061084d5761084c611156565b5b905f5260205f200154036108645760019150610871565b808060010191505061082d565b50806108a9576040517f6bebaa5300000000000000000000000000000000000000000000000000000000815260040160405180910390fd5b6001836003015f6101000a81548160ff021916908360038111156108d0576108cf610aee565b5b0217905550847f8928af2b9afebc3fdd992b9f7d3774744ea4350366a37deafff1b21cb0ceb4a6856040516109059190610d46565b60405180910390a25050505050565b6040518060a001604052805f80191681526020015f81526020015f81526020015f600381111561094757610946610aee565b5b81526020015f80191681525090565b5f80fd5b5f80fd5b5f7fffffffff0000000000000000000000000000000000000000000000000000000082169050919050565b6109928161095e565b811461099c575f80fd5b50565b5f813590506109ad81610989565b92915050565b5f602082840312156109c8576109c7610956565b5b5f6109d58482850161099f565b91505092915050565b5f8115159050919050565b6109f2816109de565b82525050565b5f602082019050610a0b5f8301846109e9565b92915050565b5f73ffffffffffffffffffffffffffffffffffffffff82169050919050565b5f610a3a82610a11565b9050919050565b610a4a81610a30565b82525050565b5f602082019050610a635f830184610a41565b92915050565b5f819050919050565b610a7b81610a69565b8114610a85575f80fd5b50565b5f81359050610a9681610a72565b92915050565b5f60208284031215610ab157610ab0610956565b5b5f610abe84828501610a88565b91505092915050565b610ad081610a69565b82525050565b5f819050919050565b610ae881610ad6565b82525050565b7f4e487b71000000000000000000000000000000000000000000000000000000005f52602160045260245ffd5b60048110610b2c57610b2b610aee565b5b50565b5f819050610b3c82610b1b565b919050565b5f610b4b82610b2f565b9050919050565b610b5b81610b41565b82525050565b5f60a082019050610b745f830188610ac7565b610b816020830187610adf565b610b8e6040830186610adf565b610b9b6060830185610b52565b610ba86080830184610ac7565b9695505050505050565b610bbb81610a30565b8114610bc5575f80fd5b50565b5f81359050610bd681610bb2565b92915050565b5f60208284031215610bf157610bf0610956565b5b5f610bfe84828501610bc8565b91505092915050565b5f81519050919050565b5f82825260208201905092915050565b5f819050602082019050919050565b610c3981610a69565b82525050565b5f610c4a8383610c30565b60208301905092915050565b5f602082019050919050565b5f610c6c82610c07565b610c768185610c11565b9350610c8183610c21565b805f5b83811015610cb1578151610c988882610c3f565b9750610ca383610c56565b925050600181019050610c84565b5085935050505092915050565b5f6020820190508181035f830152610cd68184610c62565b905092915050565b610ce781610ad6565b8114610cf1575f80fd5b50565b5f81359050610d0281610cde565b92915050565b5f8060408385031215610d1e57610d1d610956565b5b5f610d2b85828601610bc8565b9250506020610d3c85828601610cf4565b9150509250929050565b5f602082019050610d595f830184610ac7565b92915050565b5f80fd5b5f80fd5b5f80fd5b5f8083601f840112610d8057610d7f610d5f565b5b8235905067ffffffffffffffff811115610d9d57610d9c610d63565b5b602083019150836001820283011115610db957610db8610d67565b5b9250929050565b5f805f8060408587031215610dd857610dd7610956565b5b5f85013567ffffffffffffffff811115610df557610df461095a565b5b610e0187828801610d6b565b9450945050602085013567ffffffffffffffff811115610e2457610e2361095a565b5b610e3087828801610d6b565b925092505092959194509250565b5f805f60608486031215610e5557610e54610956565b5b5f610e6286828701610cf4565b9350506020610e7386828701610a88565b9250506040610e8486828701610a88565b9150509250925092565b610e9781610ad6565b82525050565b610ea681610b41565b82525050565b60a082015f820151610ec05f850182610c30565b506020820151610ed36020850182610e8e565b506040820151610ee66040850182610e8e565b506060820151610ef96060850182610e9d565b506080820151610f0c6080850182610c30565b50505050565b5f60a082019050610f255f830184610eac565b92915050565b5f8060408385031215610f4157610f40610956565b5b5f610f4e85828601610a88565b9250506020610f5f85828601610a88565b9150509250929050565b5f82825260208201905092915050565b7f4f6e6c792043524520666f7277617264657200000000000000000000000000005f82015250565b5f610fad601283610f69565b9150610fb882610f79565b602082019050919050565b5f6020820190508181035f830152610fda81610fa1565b9050919050565b5f60ff82169050919050565b610ff681610fe1565b8114611000575f80fd5b50565b5f8135905061101181610fed565b92915050565b5f806040838503121561102d5761102c610956565b5b5f61103a85828601610a88565b925050602061104b85828601611003565b9150509250929050565b5f6020820190506110685f830184610b52565b92915050565b5f8160601b9050919050565b5f6110848261106e565b9050919050565b5f6110958261107a565b9050919050565b6110ad6110a882610a30565b61108b565b82525050565b5f819050919050565b6110cd6110c882610a69565b6110b3565b82525050565b5f819050919050565b6110ed6110e882610ad6565b6110d3565b82525050565b5f6110fe828661109c565b60148201915061110e82856110bc565b60208201915061111e82846110dc565b602082019150819050949350505050565b5f6040820190506111425f830185610ac7565b61114f6020830184610adf565b9392505050565b7f4e487b71000000000000000000000000000000000000000000000000000000005f52603260045260245ffdfea264697066735822122006d4a0947518617ad3b158219f72940181334206cf8cc1e419b04b412b83b15264736f6c63430008180033","linkReferences":{}},"methodIdentifiers":{"artistTracks(address,uint256)":"7b3ee633","creAddress()":"12d5f556","entries(bytes32)":"267b6922","getArtistTracks(address)":"53392258","getEntry(bytes32)":"9a5e4eb4","onReport(bytes,bytes)":"805f2132","registerTrack(uint256,bytes32,bytes32)":"93cf7072","revealTrack(bytes32,bytes32)":"d35f9f72","supportsInterface(bytes4)":"01ffc9a7"},"id":21}