{
        "abi": [
                {
                        "type": "constructor",
                        "inputs": [
                                {
                                        "name": "_creAddress",
                                        "type": "address",
                                        "internalType": "address"
                                }
                        ],
                        "stateMutability": "nonpayable"
                },
                {
                        "type": "function",
                        "name": "artistTracks",
                        "inputs": [
                                {
                                        "name": "",
                                        "type": "address",
                                        "internalType": "address"
                                },
                                {
                                        "name": "",
                                        "type": "uint256",
                                        "internalType": "uint256"
                                }
                        ],
                        "outputs": [
                                {
                                        "name": "",
                                        "type": "bytes32",
                                        "internalType": "bytes32"
                                }
                        ],
                        "stateMutability": "view"
                },
                {
                        "type": "function",
                        "name": "creAddress",
                        "inputs": [],
                        "outputs": [
                                {
                                        "name": "",
                                        "type": "address",
                                        "internalType": "address"
                                }
                        ],
                        "stateMutability": "view"
                },
                {
                        "type": "function",
                        "name": "entries",
                        "inputs": [
                                {
                                        "name": "",
                                        "type": "bytes32",
                                        "internalType": "bytes32"
                                }
                        ],
                        "outputs": [
                                {
                                        "name": "commitmentHash",
                                        "type": "bytes32",
                                        "internalType": "bytes32"
                                },
                                {
                                        "name": "worldNullifier",
                                        "type": "uint256",
                                        "internalType": "uint256"
                                },
                                {
                                        "name": "timestamp",
                                        "type": "uint256",
                                        "internalType": "uint256"
                                },
                                {
                                        "name": "status",
                                        "type": "uint8",
                                        "internalType": "enum Registry.Status"
                                },
                                {
                                        "name": "registryRef",
                                        "type": "bytes32",
                                        "internalType": "bytes32"
                                }
                        ],
                        "stateMutability": "view"
                },
                {
                        "type": "function",
                        "name": "getArtistTracks",
                        "inputs": [
                                {
                                        "name": "artist",
                                        "type": "address",
                                        "internalType": "address"
                                }
                        ],
                        "outputs": [
                                {
                                        "name": "",
                                        "type": "bytes32[]",
                                        "internalType": "bytes32[]"
                                }
                        ],
                        "stateMutability": "view"
                },
                {
                        "type": "function",
                        "name": "getEntry",
                        "inputs": [
                                {
                                        "name": "trackId",
                                        "type": "bytes32",
                                        "internalType": "bytes32"
                                }
                        ],
                        "outputs": [
                                {
                                        "name": "",
                                        "type": "tuple",
                                        "internalType": "struct Registry.Entry",
                                        "components": [
                                                {
                                                        "name": "commitmentHash",
                                                        "type": "bytes32",
                                                        "internalType": "bytes32"
                                                },
                                                {
                                                        "name": "worldNullifier",
                                                        "type": "uint256",
                                                        "internalType": "uint256"
                                                },
                                                {
                                                        "name": "timestamp",
                                                        "type": "uint256",
                                                        "internalType": "uint256"
                                                },
                                                {
                                                        "name": "status",
                                                        "type": "uint8",
                                                        "internalType": "enum Registry.Status"
                                                },
                                                {
                                                        "name": "registryRef",
                                                        "type": "bytes32",
                                                        "internalType": "bytes32"
                                                }
                                        ]
                                }
                        ],
                        "stateMutability": "view"
                },
                {
                        "type": "function",
                        "name": "receiveCRECallback",
                        "inputs": [
                                {
                                        "name": "trackId",
                                        "type": "bytes32",
                                        "internalType": "bytes32"
                                },
                                {
                                        "name": "verdict",
                                        "type": "uint8",
                                        "internalType": "enum Registry.Status"
                                },
                                {
                                        "name": "",
                                        "type": "bytes",
                                        "internalType": "bytes"
                                }
                        ],
                        "outputs": [],
                        "stateMutability": "nonpayable"
                },
                {
                        "type": "function",
                        "name": "registerTrack",
                        "inputs": [
                                {
                                        "name": "nullifier",
                                        "type": "uint256",
                                        "internalType": "uint256"
                                },
                                {
                                        "name": "commitmentHash",
                                        "type": "bytes32",
                                        "internalType": "bytes32"
                                },
                                {
                                        "name": "registryRef",
                                        "type": "bytes32",
                                        "internalType": "bytes32"
                                }
                        ],
                        "outputs": [
                                {
                                        "name": "trackId",
                                        "type": "bytes32",
                                        "internalType": "bytes32"
                                }
                        ],
                        "stateMutability": "nonpayable"
                },
                {
                        "type": "function",
                        "name": "revealTrack",
                        "inputs": [
                                {
                                        "name": "trackId",
                                        "type": "bytes32",
                                        "internalType": "bytes32"
                                },
                                {
                                        "name": "fullProfileHash",
                                        "type": "bytes32",
                                        "internalType": "bytes32"
                                }
                        ],
                        "outputs": [],
                        "stateMutability": "nonpayable"
                },
                {
                        "type": "function",
                        "name": "usedNullifiers",
                        "inputs": [
                                {
                                        "name": "",
                                        "type": "uint256",
                                        "internalType": "uint256"
                                }
                        ],
                        "outputs": [
                                {
                                        "name": "",
                                        "type": "bool",
                                        "internalType": "bool"
                                }
                        ],
                        "stateMutability": "view"
                },
                {
                        "type": "event",
                        "name": "StatusUpdated",
                        "inputs": [
                                {
                                        "name": "trackId",
                                        "type": "bytes32",
                                        "indexed": true,
                                        "internalType": "bytes32"
                                },
                                {
                                        "name": "status",
                                        "type": "uint8",
                                        "indexed": false,
                                        "internalType": "enum Registry.Status"
                                }
                        ],
                        "anonymous": false
                },
                {
                        "type": "event",
                        "name": "TrackRegistered",
                        "inputs": [
                                {
                                        "name": "artist",
                                        "type": "address",
                                        "indexed": true,
                                        "internalType": "address"
                                },
                                {
                                        "name": "trackId",
                                        "type": "bytes32",
                                        "indexed": true,
                                        "internalType": "bytes32"
                                },
                                {
                                        "name": "commitmentHash",
                                        "type": "bytes32",
                                        "indexed": false,
                                        "internalType": "bytes32"
                                },
                                {
                                        "name": "timestamp",
                                        "type": "uint256",
                                        "indexed": false,
                                        "internalType": "uint256"
                                }
                        ],
                        "anonymous": false
                },
                {
                        "type": "event",
                        "name": "TrackRevealed",
                        "inputs": [
                                {
                                        "name": "trackId",
                                        "type": "bytes32",
                                        "indexed": true,
                                        "internalType": "bytes32"
                                },
                                {
                                        "name": "fullProfileHash",
                                        "type": "bytes32",
                                        "indexed": false,
                                        "internalType": "bytes32"
                                }
                        ],
                        "anonymous": false
                },
                {
                        "type": "error",
                        "name": "InvalidStatus",
                        "inputs": []
                },
                {
                        "type": "error",
                        "name": "NotArtist",
                        "inputs": []
                },
                {
                        "type": "error",
                        "name": "NotCRE",
                        "inputs": []
                },
                {
                        "type": "error",
                        "name": "NullifierAlreadyUsed",
                        "inputs": []
                },
                {
                        "type": "error",
                        "name": "TrackNotFound",
                        "inputs": []
                }
        ],
        "bytecode": {
                "object": "0x60a060405234801562000010575f80fd5b50604051620011ac380380620011ac8339818101604052810190620000369190620000d6565b8073ffffffffffffffffffffffffffffffffffffffff1660808173ffffffffffffffffffffffffffffffffffffffff16815250505062000106565b5f80fd5b5f73ffffffffffffffffffffffffffffffffffffffff82169050919050565b5f620000a08262000075565b9050919050565b620000b28162000094565b8114620000bd575f80fd5b50565b5f81519050620000d081620000a7565b92915050565b5f60208284031215620000ee57620000ed62000071565b5b5f620000fd84828501620000c0565b91505092915050565b608051611086620001265f395f818161021101526105de01526110865ff3fe608060405234801561000f575f80fd5b5060043610610091575f3560e01c806393cf70721161006457806393cf7072146101475780639a5e4eb414610177578063aad24061146101a7578063c28db5f5146101d7578063d35f9f72146101f357610091565b806312d5f55614610095578063267b6922146100b357806353392258146100e75780637b3ee63314610117575b5f80fd5b61009d61020f565b6040516100aa919061098d565b60405180910390f35b6100cd60048036038101906100c891906109e1565b610233565b6040516100de959493929190610aa6565b60405180910390f35b61010160048036038101906100fc9190610b21565b610270565b60405161010e9190610c03565b60405180910390f35b610131600480360381019061012c9190610c4d565b610303565b60405161013e9190610c8b565b60405180910390f35b610161600480360381019061015c9190610ca4565b61032e565b60405161016e9190610c8b565b60405180910390f35b610191600480360381019061018c91906109e1565b610534565b60405161019e9190610d78565b60405180910390f35b6101c160048036038101906101bc9190610d91565b6105bf565b6040516101ce9190610dd6565b60405180910390f35b6101f160048036038101906101ec9190610e73565b6105dc565b005b61020d60048036038101906102089190610ee4565b610725565b005b7f000000000000000000000000000000000000000000000000000000000000000081565b5f602052805f5260405f205f91509050805f015490806001015490806002015490806003015f9054906101000a900460ff16908060040154905085565b606060015f8373ffffffffffffffffffffffffffffffffffffffff1673ffffffffffffffffffffffffffffffffffffffff1681526020019081526020015f208054806020026020016040519081016040528092919081815260200182805480156102f757602002820191905f5260205f20905b8154815260200190600101908083116102e3575b50505050509050919050565b6001602052815f5260405f20818154811061031c575f80fd5b905f5260205f20015f91509150505481565b5f60025f8581526020019081526020015f205f9054906101000a900460ff1615610384576040517fcad2ae0200000000000000000000000000000000000000000000000000000000815260040160405180910390fd5b600160025f8681526020019081526020015f205f6101000a81548160ff0219169083151502179055503383426040516020016103c293929190610fa7565b6040516020818303038152906040528051906020012090506040518060a001604052808481526020018581526020014281526020015f600381111561040a57610409610a33565b5b8152602001838152505f808381526020019081526020015f205f820151815f015560208201518160010155604082015181600201556060820151816003015f6101000a81548160ff0219169083600381111561046957610468610a33565b5b02179055506080820151816004015590505060015f3373ffffffffffffffffffffffffffffffffffffffff1673ffffffffffffffffffffffffffffffffffffffff1681526020019081526020015f2081908060018154018082558091505060019003905f5260205f20015f9091909190915055803373ffffffffffffffffffffffffffffffffffffffff167f93675e94cfa09babe159a5add5eb4fe093a2cd0e091dec33b8fbb82d26dd3f198542604051610525929190610fe3565b60405180910390a39392505050565b61053c61090c565b5f808381526020019081526020015f206040518060a00160405290815f82015481526020016001820154815260200160028201548152602001600382015f9054906101000a900460ff16600381111561059857610597610a33565b5b60038111156105aa576105a9610a33565b5b81526020016004820154815250509050919050565b6002602052805f5260405f205f915054906101000a900460ff1681565b7f000000000000000000000000000000000000000000000000000000000000000073ffffffffffffffffffffffffffffffffffffffff163373ffffffffffffffffffffffffffffffffffffffff1614610661576040517f32a2df7800000000000000000000000000000000000000000000000000000000815260040160405180910390fd5b5f805f8681526020019081526020015f2060020154036106ad576040517f15f764b000000000000000000000000000000000000000000000000000000000815260040160405180910390fd5b825f808681526020019081526020015f206003015f6101000a81548160ff021916908360038111156106e2576106e1610a33565b5b0217905550837f8ed894b6f384ca9c829b9aa5b056bc9106a90845a15616607e975d4ad488ee6784604051610717919061100a565b60405180910390a250505050565b5f805f8481526020019081526020015f2090505f816002015403610775576040517f15f764b000000000000000000000000000000000000000000000000000000000815260040160405180910390fd5b5f600381111561078857610787610a33565b5b816003015f9054906101000a900460ff1660038111156107ab576107aa610a33565b5b146107e2576040517ff525e32000000000000000000000000000000000000000000000000000000000815260040160405180910390fd5b5f60015f3373ffffffffffffffffffffffffffffffffffffffff1673ffffffffffffffffffffffffffffffffffffffff1681526020019081526020015f2090505f805b8280549050811015610869578583828154811061084557610844611023565b5b905f5260205f2001540361085c5760019150610869565b8080600101915050610825565b50806108a1576040517f6bebaa5300000000000000000000000000000000000000000000000000000000815260040160405180910390fd5b6001836003015f6101000a81548160ff021916908360038111156108c8576108c7610a33565b5b0217905550847f8928af2b9afebc3fdd992b9f7d3774744ea4350366a37deafff1b21cb0ceb4a6856040516108fd9190610c8b565b60405180910390a25050505050565b6040518060a001604052805f80191681526020015f81526020015f81526020015f600381111561093f5761093e610a33565b5b81526020015f80191681525090565b5f73ffffffffffffffffffffffffffffffffffffffff82169050919050565b5f6109778261094e565b9050919050565b6109878161096d565b82525050565b5f6020820190506109a05f83018461097e565b92915050565b5f80fd5b5f80fd5b5f819050919050565b6109c0816109ae565b81146109ca575f80fd5b50565b5f813590506109db816109b7565b92915050565b5f602082840312156109f6576109f56109a6565b5b5f610a03848285016109cd565b91505092915050565b610a15816109ae565b82525050565b5f819050919050565b610a2d81610a1b565b82525050565b7f4e487b71000000000000000000000000000000000000000000000000000000005f52602160045260245ffd5b60048110610a7157610a70610a33565b5b50565b5f819050610a8182610a60565b919050565b5f610a9082610a74565b9050919050565b610aa081610a86565b82525050565b5f60a082019050610ab95f830188610a0c565b610ac66020830187610a24565b610ad36040830186610a24565b610ae06060830185610a97565b610aed6080830184610a0c565b9695505050505050565b610b008161096d565b8114610b0a575f80fd5b50565b5f81359050610b1b81610af7565b92915050565b5f60208284031215610b3657610b356109a6565b5b5f610b4384828501610b0d565b91505092915050565b5f81519050919050565b5f82825260208201905092915050565b5f819050602082019050919050565b610b7e816109ae565b82525050565b5f610b8f8383610b75565b60208301905092915050565b5f602082019050919050565b5f610bb182610b4c565b610bbb8185610b56565b9350610bc683610b66565b805f5b83811015610bf6578151610bdd8882610b84565b9750610be883610b9b565b925050600181019050610bc9565b5085935050505092915050565b5f6020820190508181035f830152610c1b8184610ba7565b905092915050565b610c2c81610a1b565b8114610c36575f80fd5b50565b5f81359050610c4781610c23565b92915050565b5f8060408385031215610c6357610c626109a6565b5b5f610c7085828601610b0d565b9250506020610c8185828601610c39565b9150509250929050565b5f602082019050610c9e5f830184610a0c565b92915050565b5f805f60608486031215610cbb57610cba6109a6565b5b5f610cc886828701610c39565b9350506020610cd9868287016109cd565b9250506040610cea868287016109cd565b9150509250925092565b610cfd81610a1b565b82525050565b610d0c81610a86565b82525050565b60a082015f820151610d265f850182610b75565b506020820151610d396020850182610cf4565b506040820151610d4c6040850182610cf4565b506060820151610d5f6060850182610d03565b506080820151610d726080850182610b75565b50505050565b5f60a082019050610d8b5f830184610d12565b92915050565b5f60208284031215610da657610da56109a6565b5b5f610db384828501610c39565b91505092915050565b5f8115159050919050565b610dd081610dbc565b82525050565b5f602082019050610de95f830184610dc7565b92915050565b60048110610dfb575f80fd5b50565b5f81359050610e0c81610def565b92915050565b5f80fd5b5f80fd5b5f80fd5b5f8083601f840112610e3357610e32610e12565b5b8235905067ffffffffffffffff811115610e5057610e4f610e16565b5b602083019150836001820283011115610e6c57610e6b610e1a565b5b9250929050565b5f805f8060608587031215610e8b57610e8a6109a6565b5b5f610e98878288016109cd565b9450506020610ea987828801610dfe565b935050604085013567ffffffffffffffff811115610eca57610ec96109aa565b5b610ed687828801610e1e565b925092505092959194509250565b5f8060408385031215610efa57610ef96109a6565b5b5f610f07858286016109cd565b9250506020610f18858286016109cd565b9150509250929050565b5f8160601b9050919050565b5f610f3882610f22565b9050919050565b5f610f4982610f2e565b9050919050565b610f61610f5c8261096d565b610f3f565b82525050565b5f819050919050565b610f81610f7c826109ae565b610f67565b82525050565b5f819050919050565b610fa1610f9c82610a1b565b610f87565b82525050565b5f610fb28286610f50565b601482019150610fc28285610f70565b602082019150610fd28284610f90565b602082019150819050949350505050565b5f604082019050610ff65f830185610a0c565b6110036020830184610a24565b9392505050565b5f60208201905061101d5f830184610a97565b92915050565b7f4e487b71000000000000000000000000000000000000000000000000000000005f52603260045260245ffdfea2646970667358221220feba9a7cd2bc3371d9688231f26ca913db80d0962cbaf5af49818a839e22365b64736f6c63430008180033",
                "linkReferences": {}
        },
        "methodIdentifiers": {
                "artistTracks(address,uint256)": "7b3ee633",
                "creAddress()": "12d5f556",
                "entries(bytes32)": "267b6922",
                "getArtistTracks(address)": "53392258",
                "getEntry(bytes32)": "9a5e4eb4",
                "receiveCRECallback(bytes32,uint8,bytes)": "c28db5f5",
                "registerTrack(uint256,bytes32,bytes32)": "93cf7072",
                "revealTrack(bytes32,bytes32)": "d35f9f72",
                "usedNullifiers(uint256)": "aad24061"
        },
        "id": 19
}